{
  "_format": "hh-sol-artifact-1",
  "contractName": "DynamicPoolFactory",
  "sourceName": "contracts/dynamicpool/factory/DynamicPoolFactory.sol",
  "abi": [
    {
      "inputs": [
        {
          "internalType": "address",
          "name": "_owner",
          "type": "address"
        }
      ],
      "stateMutability": "nonpayable",
      "type": "constructor"
    },
    {
      "anonymous": false,
      "inputs": [
        {
          "indexed": true,
          "internalType": "address",
          "name": "Success",
          "type": "address"
        },
        {
          "indexed": true,
          "internalType": "address",
          "name": "Fail",
          "type": "address"
        },
        {
          "indexed": true,
          "internalType": "address",
          "name": "Creator",
          "type": "address"
        }
      ],
      "name": "ChallengeCreated",
      "type": "event"
    },
    {
      "anonymous": false,
      "inputs": [
        {
          "indexed": false,
          "internalType": "address",
          "name": "Pool",
          "type": "address"
        },
        {
          "indexed": false,
          "internalType": "address",
          "name": "User",
          "type": "address"
        },
        {
          "indexed": false,
          "internalType": "uint256",
          "name": "Deposit",
          "type": "uint256"
        },
        {
          "indexed": false,
          "internalType": "bool",
          "name": "Form",
          "type": "bool"
        }
      ],
      "name": "DepositMoved",
      "type": "event"
    },
    {
      "anonymous": false,
      "inputs": [
        {
          "indexed": true,
          "internalType": "address",
          "name": "OwnerAddress",
          "type": "address"
        }
      ],
      "name": "OwnerChanged",
      "type": "event"
    },
    {
      "stateMutability": "nonpayable",
      "type": "fallback"
    },
    {
      "inputs": [
        {
          "internalType": "address",
          "name": "_owner",
          "type": "address"
        }
      ],
      "name": "changeOwner",
      "outputs": [],
      "stateMutability": "nonpayable",
      "type": "function"
    },
    {
      "inputs": [
        {
          "internalType": "string",
          "name": "_name",
          "type": "string"
        }
      ],
      "name": "createChallenge",
      "outputs": [
        {
          "components": [
            {
              "internalType": "address payable",
              "name": "Success",
              "type": "address"
            },
            {
              "internalType": "address payable",
              "name": "Fail",
              "type": "address"
            }
          ],
          "internalType": "struct Struct.Challenge",
          "name": "",
          "type": "tuple"
        }
      ],
      "stateMutability": "nonpayable",
      "type": "function"
    },
    {
      "inputs": [
        {
          "internalType": "uint256",
          "name": "_idx",
          "type": "uint256"
        }
      ],
      "name": "getChallenge",
      "outputs": [
        {
          "components": [
            {
              "internalType": "address payable",
              "name": "Success",
              "type": "address"
            },
            {
              "internalType": "address payable",
              "name": "Fail",
              "type": "address"
            }
          ],
          "internalType": "struct Struct.Challenge",
          "name": "",
          "type": "tuple"
        }
      ],
      "stateMutability": "view",
      "type": "function"
    },
    {
      "inputs": [],
      "name": "getIndex",
      "outputs": [
        {
          "internalType": "uint256",
          "name": "",
          "type": "uint256"
        }
      ],
      "stateMutability": "view",
      "type": "function"
    },
    {
      "inputs": [],
      "name": "getOwner",
      "outputs": [
        {
          "internalType": "address",
          "name": "",
          "type": "address"
        }
      ],
      "stateMutability": "view",
      "type": "function"
    },
    {
      "inputs": [
        {
          "internalType": "address",
          "name": "_pool",
          "type": "address"
        },
        {
          "internalType": "uint256",
          "name": "_idx",
          "type": "uint256"
        }
      ],
      "name": "responseReversePool",
      "outputs": [
        {
          "internalType": "address",
          "name": "",
          "type": "address"
        }
      ],
      "stateMutability": "view",
      "type": "function"
    },
    {
      "inputs": [
        {
          "internalType": "address",
          "name": "_Success",
          "type": "address"
        },
        {
          "internalType": "address",
          "name": "_Fail",
          "type": "address"
        },
        {
          "internalType": "uint256",
          "name": "_idx",
          "type": "uint256"
        }
      ],
      "name": "storeChallenge",
      "outputs": [
        {
          "components": [
            {
              "internalType": "address payable",
              "name": "Success",
              "type": "address"
            },
            {
              "internalType": "address payable",
              "name": "Fail",
              "type": "address"
            }
          ],
          "internalType": "struct Struct.Challenge",
          "name": "",
          "type": "tuple"
        }
      ],
      "stateMutability": "nonpayable",
      "type": "function"
    }
  ],
  "bytecode": "0x60806040523480156200001157600080fd5b506040516200400c3803806200400c8339818101604052810190620000379190620000f0565b806000806101000a81548173ffffffffffffffffffffffffffffffffffffffff021916908373ffffffffffffffffffffffffffffffffffffffff16021790555060006001819055505062000122565b600080fd5b600073ffffffffffffffffffffffffffffffffffffffff82169050919050565b6000620000b8826200008b565b9050919050565b620000ca81620000ab565b8114620000d657600080fd5b50565b600081519050620000ea81620000bf565b92915050565b60006020828403121562000109576200010862000086565b5b60006200011984828501620000d9565b91505092915050565b613eda80620001326000396000f3fe60806040523480156200001157600080fd5b50600436106200008d5760003560e01c8063893d20e81162000063578063893d20e8146200011e5780639086f77214620001405780639b4ecbbb1462000176578063a6f9dae114620001ac576200008e565b80631bdd4b7414620000905780636bf78c2f14620000c657806381045ead14620000fc576200008e565b5b005b620000ae6004803603810190620000a8919062000bab565b620001cc565b604051620000bd919062000c55565b60405180910390f35b620000e46004803603810190620000de919062000dd4565b620002a7565b604051620000f3919062000c55565b60405180910390f35b620001066200049c565b60405162000115919062000e36565b60405180910390f35b62000128620004a6565b60405162000137919062000e78565b60405180910390f35b6200015e600480360381019062000158919062000ec6565b620004cf565b6040516200016d919062000e78565b60405180910390f35b6200019460048036038101906200018e919062000f0d565b62000695565b604051620001a3919062000c55565b60405180910390f35b620001ca6004803603810190620001c4919062000f69565b620008a9565b005b620001d662000b08565b600260008381526020019081526020016000206040518060400160405290816000820160009054906101000a900473ffffffffffffffffffffffffffffffffffffffff1673ffffffffffffffffffffffffffffffffffffffff1673ffffffffffffffffffffffffffffffffffffffff1681526020016001820160009054906101000a900473ffffffffffffffffffffffffffffffffffffffff1673ffffffffffffffffffffffffffffffffffffffff1673ffffffffffffffffffffffffffffffffffffffff16815250509050919050565b620002b162000b08565b6000620002bd62000981565b90508062000302576040517f08c379a0000000000000000000000000000000000000000000000000000000008152600401620002f99062001022565b60405180910390fd5b600180600082825462000316919062001073565b9250508190555060008360008054906101000a900473ffffffffffffffffffffffffffffffffffffffff163060018054604051620003549062000b4e565b6200036495949392919062001154565b604051809103906000f08015801562000381573d6000803e3d6000fd5b50905060008460008054906101000a900473ffffffffffffffffffffffffffffffffffffffff16306000600154604051620003bc9062000b4e565b620003cc95949392919062001154565b604051809103906000f080158015620003e9573d6000803e3d6000fd5b5090506000620003fd838360015462000695565b905060008054906101000a900473ffffffffffffffffffffffffffffffffffffffff1673ffffffffffffffffffffffffffffffffffffffff168273ffffffffffffffffffffffffffffffffffffffff168473ffffffffffffffffffffffffffffffffffffffff167f3a919f2dae35bbfa24fbba5570c74151c00deccd003b2770e859da50ad5c6d8d60405160405180910390a480945050505050919050565b6000600154905090565b60008060009054906101000a900473ffffffffffffffffffffffffffffffffffffffff16905090565b600080620004dc62000981565b90508062000521576040517f08c379a0000000000000000000000000000000000000000000000000000000008152600401620005189062001022565b60405180910390fd5b6200052c83620009e5565b6200056e576040517f08c379a000000000000000000000000000000000000000000000000000000000815260040162000565906200122e565b60405180910390fd5b6000600260008581526020019081526020016000206040518060400160405290816000820160009054906101000a900473ffffffffffffffffffffffffffffffffffffffff1673ffffffffffffffffffffffffffffffffffffffff1673ffffffffffffffffffffffffffffffffffffffff1681526020016001820160009054906101000a900473ffffffffffffffffffffffffffffffffffffffff1673ffffffffffffffffffffffffffffffffffffffff1673ffffffffffffffffffffffffffffffffffffffff1681525050905060008573ffffffffffffffffffffffffffffffffffffffff16826000015173ffffffffffffffffffffffffffffffffffffffff16146200068157816000015162000687565b81602001515b905080935050505092915050565b6200069f62000b08565b6000620006ab62000981565b905080620006f0576040517f08c379a0000000000000000000000000000000000000000000000000000000008152600401620006e79062001022565b60405180910390fd5b60405180604001604052808673ffffffffffffffffffffffffffffffffffffffff1681526020018573ffffffffffffffffffffffffffffffffffffffff168152506002600085815260200190815260200160002060008201518160000160006101000a81548173ffffffffffffffffffffffffffffffffffffffff021916908373ffffffffffffffffffffffffffffffffffffffff16021790555060208201518160010160006101000a81548173ffffffffffffffffffffffffffffffffffffffff021916908373ffffffffffffffffffffffffffffffffffffffff160217905550905050600260008481526020019081526020016000206040518060400160405290816000820160009054906101000a900473ffffffffffffffffffffffffffffffffffffffff1673ffffffffffffffffffffffffffffffffffffffff1673ffffffffffffffffffffffffffffffffffffffff1681526020016001820160009054906101000a900473ffffffffffffffffffffffffffffffffffffffff1673ffffffffffffffffffffffffffffffffffffffff1673ffffffffffffffffffffffffffffffffffffffff16815250509150509392505050565b6000620008b562000981565b905080620008fa576040517f08c379a0000000000000000000000000000000000000000000000000000000008152600401620008f19062001022565b60405180910390fd5b816000806101000a81548173ffffffffffffffffffffffffffffffffffffffff021916908373ffffffffffffffffffffffffffffffffffffffff1602179055508173ffffffffffffffffffffffffffffffffffffffff167fa2ea9883a321a3e97b8266c2b078bfeec6d50c711ed71f874a90d500ae2eaf3660405160405180910390a25050565b60008060008054906101000a900473ffffffffffffffffffffffffffffffffffffffff1673ffffffffffffffffffffffffffffffffffffffff16620009c562000b00565b73ffffffffffffffffffffffffffffffffffffffff161490508091505090565b600080600260008481526020019081526020016000206040518060400160405290816000820160009054906101000a900473ffffffffffffffffffffffffffffffffffffffff1673ffffffffffffffffffffffffffffffffffffffff1673ffffffffffffffffffffffffffffffffffffffff1681526020016001820160009054906101000a900473ffffffffffffffffffffffffffffffffffffffff1673ffffffffffffffffffffffffffffffffffffffff1673ffffffffffffffffffffffffffffffffffffffff16815250509050600073ffffffffffffffffffffffffffffffffffffffff16816000015173ffffffffffffffffffffffffffffffffffffffff160362000af557600062000af8565b60015b915050919050565b600033905090565b6040518060400160405280600073ffffffffffffffffffffffffffffffffffffffff168152602001600073ffffffffffffffffffffffffffffffffffffffff1681525090565b612c54806200125183390190565b6000604051905090565b600080fd5b600080fd5b6000819050919050565b62000b858162000b70565b811462000b9157600080fd5b50565b60008135905062000ba58162000b7a565b92915050565b60006020828403121562000bc45762000bc362000b66565b5b600062000bd48482850162000b94565b91505092915050565b600073ffffffffffffffffffffffffffffffffffffffff82169050919050565b600062000c0a8262000bdd565b9050919050565b62000c1c8162000bfd565b82525050565b60408201600082015162000c3a600085018262000c11565b50602082015162000c4f602085018262000c11565b50505050565b600060408201905062000c6c600083018462000c22565b92915050565b600080fd5b600080fd5b6000601f19601f8301169050919050565b7f4e487b7100000000000000000000000000000000000000000000000000000000600052604160045260246000fd5b62000cc78262000c7c565b810181811067ffffffffffffffff8211171562000ce95762000ce862000c8d565b5b80604052505050565b600062000cfe62000b5c565b905062000d0c828262000cbc565b919050565b600067ffffffffffffffff82111562000d2f5762000d2e62000c8d565b5b62000d3a8262000c7c565b9050602081019050919050565b82818337600083830152505050565b600062000d6d62000d678462000d11565b62000cf2565b90508281526020810184848401111562000d8c5762000d8b62000c77565b5b62000d9984828562000d47565b509392505050565b600082601f83011262000db95762000db862000c72565b5b813562000dcb84826020860162000d56565b91505092915050565b60006020828403121562000ded5762000dec62000b66565b5b600082013567ffffffffffffffff81111562000e0e5762000e0d62000b6b565b5b62000e1c8482850162000da1565b91505092915050565b62000e308162000b70565b82525050565b600060208201905062000e4d600083018462000e25565b92915050565b600062000e608262000bdd565b9050919050565b62000e728162000e53565b82525050565b600060208201905062000e8f600083018462000e67565b92915050565b62000ea08162000e53565b811462000eac57600080fd5b50565b60008135905062000ec08162000e95565b92915050565b6000806040838503121562000ee05762000edf62000b66565b5b600062000ef08582860162000eaf565b925050602062000f038582860162000b94565b9150509250929050565b60008060006060848603121562000f295762000f2862000b66565b5b600062000f398682870162000eaf565b935050602062000f4c8682870162000eaf565b925050604062000f5f8682870162000b94565b9150509250925092565b60006020828403121562000f825762000f8162000b66565b5b600062000f928482850162000eaf565b91505092915050565b600082825260208201905092915050565b7f44796e616d6963506f6f6c466163746f7279204572726f723a204f6e6c79204f60008201527f776e65722043616e206368616e6765204f776e65720000000000000000000000602082015250565b60006200100a60358362000f9b565b9150620010178262000fac565b604082019050919050565b600060208201905081810360008301526200103d8162000ffb565b9050919050565b7f4e487b7100000000000000000000000000000000000000000000000000000000600052601160045260246000fd5b6000620010808262000b70565b91506200108d8362000b70565b9250828201905080821115620010a857620010a762001044565b5b92915050565b600081519050919050565b60005b83811015620010d9578082015181840152602081019050620010bc565b60008484015250505050565b6000620010f282620010ae565b620010fe818562000f9b565b935062001110818560208601620010b9565b6200111b8162000c7c565b840191505092915050565b620011318162000bfd565b82525050565b60008115159050919050565b6200114e8162001137565b82525050565b600060a0820190508181036000830152620011708188620010e5565b905062001181602083018762001126565b62001190604083018662000e67565b6200119f606083018562001143565b620011ae608083018462000e25565b9695505050505050565b7f44796e616d6963506f6f6c466163746f7279204572726f723a204368616c6c6560008201527f6e676520496e646578206973206e6f7420457869737400000000000000000000602082015250565b60006200121660368362000f9b565b91506200122382620011b8565b604082019050919050565b60006020820190508181036000830152620012498162001207565b905091905056fe60806040523480156200001157600080fd5b5060405162002c5438038062002c548339818101604052810190620000379190620003ac565b846000908162000048919062000694565b5083600160006101000a81548173ffffffffffffffffffffffffffffffffffffffff021916908373ffffffffffffffffffffffffffffffffffffffff16021790555082600260006101000a81548173ffffffffffffffffffffffffffffffffffffffff021916908373ffffffffffffffffffffffffffffffffffffffff16021790555081600260146101000a81548160ff0219169083151502179055508060038190555050505050506200077b565b6000604051905090565b600080fd5b600080fd5b600080fd5b600080fd5b6000601f19601f8301169050919050565b7f4e487b7100000000000000000000000000000000000000000000000000000000600052604160045260246000fd5b620001608262000115565b810181811067ffffffffffffffff8211171562000182576200018162000126565b5b80604052505050565b600062000197620000f7565b9050620001a5828262000155565b919050565b600067ffffffffffffffff821115620001c857620001c762000126565b5b620001d38262000115565b9050602081019050919050565b60005b8381101562000200578082015181840152602081019050620001e3565b60008484015250505050565b6000620002236200021d84620001aa565b6200018b565b90508281526020810184848401111562000242576200024162000110565b5b6200024f848285620001e0565b509392505050565b600082601f8301126200026f576200026e6200010b565b5b8151620002818482602086016200020c565b91505092915050565b600073ffffffffffffffffffffffffffffffffffffffff82169050919050565b6000620002b7826200028a565b9050919050565b620002c981620002aa565b8114620002d557600080fd5b50565b600081519050620002e981620002be565b92915050565b6000620002fc826200028a565b9050919050565b6200030e81620002ef565b81146200031a57600080fd5b50565b6000815190506200032e8162000303565b92915050565b60008115159050919050565b6200034b8162000334565b81146200035757600080fd5b50565b6000815190506200036b8162000340565b92915050565b6000819050919050565b620003868162000371565b81146200039257600080fd5b50565b600081519050620003a6816200037b565b92915050565b600080600080600060a08688031215620003cb57620003ca62000101565b5b600086015167ffffffffffffffff811115620003ec57620003eb62000106565b5b620003fa8882890162000257565b95505060206200040d88828901620002d8565b945050604062000420888289016200031d565b935050606062000433888289016200035a565b9250506080620004468882890162000395565b9150509295509295909350565b600081519050919050565b7f4e487b7100000000000000000000000000000000000000000000000000000000600052602260045260246000fd5b60006002820490506001821680620004a657607f821691505b602082108103620004bc57620004bb6200045e565b5b50919050565b60008190508160005260206000209050919050565b60006020601f8301049050919050565b600082821b905092915050565b600060088302620005267fffffffffffffffffffffffffffffffffffffffffffffffffffffffffffffffff82620004e7565b620005328683620004e7565b95508019841693508086168417925050509392505050565b6000819050919050565b6000620005756200056f620005698462000371565b6200054a565b62000371565b9050919050565b6000819050919050565b620005918362000554565b620005a9620005a0826200057c565b848454620004f4565b825550505050565b600090565b620005c0620005b1565b620005cd81848462000586565b505050565b5b81811015620005f557620005e9600082620005b6565b600181019050620005d3565b5050565b601f82111562000644576200060e81620004c2565b6200061984620004d7565b8101602085101562000629578190505b620006416200063885620004d7565b830182620005d2565b50505b505050565b600082821c905092915050565b6000620006696000198460080262000649565b1980831691505092915050565b600062000684838362000656565b9150826002028217905092915050565b6200069f8262000453565b67ffffffffffffffff811115620006bb57620006ba62000126565b5b620006c782546200048d565b620006d4828285620005f9565b600060209050601f8311600181146200070c5760008415620006f7578287015190505b62000703858262000676565b86555062000773565b601f1984166200071c86620004c2565b60005b8281101562000746578489015182556001820191506020850194506020810190506200071f565b8683101562000766578489015162000762601f89168262000656565b8355505b6001600288020188555050505b505050505050565b6124c9806200078b6000396000f3fe60806040526004361061010d5760003560e01c806388cc58e411610095578063c45a015511610064578063c45a015514610389578063d3017193146103b4578063d92ca747146103f1578063e2842d791461041c578063e992ecc81461044757610114565b806388cc58e4146102dd578063893d20e8146103085780638da5cb5b14610333578063c3dfe0351461035e57610114565b80632ccb1b30116100dc5780632ccb1b30146101d75780635c60f226146102075780636f77926b146102445780637f07bfdc1461028257806381045ead146102b257610114565b806306fdde031461011957806312065fe01461014457806317d7de7c1461016f5780631ed8eb071461019a57610114565b3661011457005b600080fd5b34801561012557600080fd5b5061012e610477565b60405161013b9190611a0c565b60405180910390f35b34801561015057600080fd5b50610159610505565b6040516101669190611a47565b60405180910390f35b34801561017b57600080fd5b5061018461050d565b6040516101919190611a0c565b60405180910390f35b3480156101a657600080fd5b506101c160048036038101906101bc9190611af1565b61059f565b6040516101ce9190611b5f565b60405180910390f35b6101f160048036038101906101ec9190611b7a565b61081f565b6040516101fe9190611b5f565b60405180910390f35b34801561021357600080fd5b5061022e60048036038101906102299190611bba565b610a03565b60405161023b9190611ce3565b60405180910390f35b34801561025057600080fd5b5061026b60048036038101906102669190611bba565b610cc8565b604051610279929190611d34565b60405180910390f35b61029c60048036038101906102979190611b7a565b610e45565b6040516102a99190611b5f565b60405180910390f35b3480156102be57600080fd5b506102c76110a6565b6040516102d49190611a47565b60405180910390f35b3480156102e957600080fd5b506102f26110b0565b6040516102ff9190611d6c565b60405180910390f35b34801561031457600080fd5b5061031d6110da565b60405161032a9190611d6c565b60405180910390f35b34801561033f57600080fd5b50610348611104565b6040516103559190611da8565b60405180910390f35b34801561036a57600080fd5b5061037361112a565b6040516103809190611d6c565b60405180910390f35b34801561039557600080fd5b5061039e611353565b6040516103ab9190611d6c565b60405180910390f35b3480156103c057600080fd5b506103db60048036038101906103d69190611b7a565b611379565b6040516103e89190611dc3565b60405180910390f35b3480156103fd57600080fd5b506104066115b6565b6040516104139190611b5f565b60405180910390f35b34801561042857600080fd5b506104316115cd565b60405161043e9190611ce3565b60405180910390f35b610461600480360381019061045c9190611b7a565b61168c565b60405161046e9190611b5f565b60405180910390f35b6000805461048490611e0d565b80601f01602080910402602001604051908101604052809291908181526020018280546104b090611e0d565b80156104fd5780601f106104d2576101008083540402835291602001916104fd565b820191906000526020600020905b8154815290600101906020018083116104e057829003601f168201915b505050505081565b600047905090565b60606000805461051c90611e0d565b80601f016020809104026020016040519081016040528092919081815260200182805461054890611e0d565b80156105955780601f1061056a57610100808354040283529160200191610595565b820191906000526020600020905b81548152906001019060200180831161057857829003601f168201915b5050505050905090565b600080600160009054906101000a900473ffffffffffffffffffffffffffffffffffffffff1673ffffffffffffffffffffffffffffffffffffffff166105e3611944565b73ffffffffffffffffffffffffffffffffffffffff1614610605576000610608565b60015b90508061064a576040517f08c379a000000000000000000000000000000000000000000000000000000000815260040161064190611eb0565b60405180910390fd5b600085905060008173ffffffffffffffffffffffffffffffffffffffff166370a08231306040518263ffffffff1660e01b815260040161068a9190611d6c565b602060405180830381865afa1580156106a7573d6000803e3d6000fd5b505050506040513d601f19601f820116820180604052508101906106cb9190611ee5565b905084811015610710576040517f08c379a000000000000000000000000000000000000000000000000000000000815260040161070790611f5e565b60405180910390fd5b60008273ffffffffffffffffffffffffffffffffffffffff1663a9059cbb88886040518363ffffffff1660e01b815260040161074d929190611f7e565b6020604051808303816000875af115801561076c573d6000803e3d6000fd5b505050506040513d601f19601f820116820180604052508101906107909190611fd3565b9050806107d2576040517f08c379a00000000000000000000000000000000000000000000000000000000081526004016107c99061204c565b60405180910390fd5b7f26bd074035589e6689bb0db89c84834b00e06bf19a57eab48637d3cd8dbf2ae33088886001604051610808949392919061206c565b60405180910390a160019450505050509392505050565b600080600160009054906101000a900473ffffffffffffffffffffffffffffffffffffffff1673ffffffffffffffffffffffffffffffffffffffff16610863611944565b73ffffffffffffffffffffffffffffffffffffffff1614610885576000610888565b60015b9050806108ca576040517f08c379a00000000000000000000000000000000000000000000000000000000081526004016108c190611eb0565b60405180910390fd5b8247101561090d576040517f08c379a000000000000000000000000000000000000000000000000000000000815260040161090490611f5e565b60405180910390fd5b60008473ffffffffffffffffffffffffffffffffffffffff1684604051610933906120e2565b60006040518083038185875af1925050503d8060008114610970576040519150601f19603f3d011682016040523d82523d6000602084013e610975565b606091505b50509050806109b9576040517f08c379a00000000000000000000000000000000000000000000000000000000081526004016109b09061204c565b60405180910390fd5b7f26bd074035589e6689bb0db89c84834b00e06bf19a57eab48637d3cd8dbf2ae330868660016040516109ef949392919061206c565b60405180910390a160019250505092915050565b60606000600160009054906101000a900473ffffffffffffffffffffffffffffffffffffffff1673ffffffffffffffffffffffffffffffffffffffff16610a48611944565b73ffffffffffffffffffffffffffffffffffffffff1614610a6a576000610a6d565b60015b905080610aaf576040517f08c379a0000000000000000000000000000000000000000000000000000000008152600401610aa690611eb0565b60405180910390fd5b600080610abb85610cc8565b91509150600073ffffffffffffffffffffffffffffffffffffffff16826000015173ffffffffffffffffffffffffffffffffffffffff1614610b32576040517f08c379a0000000000000000000000000000000000000000000000000000000008152600401610b2990612169565b60405180910390fd5b6000826020015111610b79576040517f08c379a0000000000000000000000000000000000000000000000000000000008152600401610b70906121fb565b60405180910390fd5b60048181548110610b8d57610b8c61221b565b5b9060005260206000209060020201600080820160006101000a81549073ffffffffffffffffffffffffffffffffffffffff0219169055600182016000905550507ff93da4a59a937584eca9a6054bd8731085e1c7d8af5209783a2abb15e102a98f3086604051610bfe92919061224a565b60405180910390a16004805480602002602001604051908101604052809291908181526020016000905b82821015610cba57838290600052602060002090600202016040518060400160405290816000820160009054906101000a900473ffffffffffffffffffffffffffffffffffffffff1673ffffffffffffffffffffffffffffffffffffffff1673ffffffffffffffffffffffffffffffffffffffff16815260200160018201548152505081526020019060010190610c28565b505050509350505050919050565b610cd061194c565b600080600090505b600480549050811015610e0b578373ffffffffffffffffffffffffffffffffffffffff1660048281548110610d1057610d0f61221b565b5b906000526020600020906002020160000160009054906101000a900473ffffffffffffffffffffffffffffffffffffffff1673ffffffffffffffffffffffffffffffffffffffff1603610df85760048181548110610d7157610d7061221b565b5b906000526020600020906002020181816040518060400160405290816000820160009054906101000a900473ffffffffffffffffffffffffffffffffffffffff1673ffffffffffffffffffffffffffffffffffffffff1673ffffffffffffffffffffffffffffffffffffffff16815260200160018201548152505091509250925050610e40565b8080610e03906122a2565b915050610cd8565b506040518060400160405280600073ffffffffffffffffffffffffffffffffffffffff16815260200160008152506000915091505b915091565b600080600160009054906101000a900473ffffffffffffffffffffffffffffffffffffffff1673ffffffffffffffffffffffffffffffffffffffff16610e89611944565b73ffffffffffffffffffffffffffffffffffffffff1614610eab576000610eae565b60015b905080610ef0576040517f08c379a0000000000000000000000000000000000000000000000000000000008152600401610ee790611eb0565b60405180910390fd5b6000600160009054906101000a900473ffffffffffffffffffffffffffffffffffffffff1673ffffffffffffffffffffffffffffffffffffffff166108fc859081150290604051600060405180830381858888f193505050509050801561105b57600080610f5d87610cc8565b9150915060405180604001604052808873ffffffffffffffffffffffffffffffffffffffff168152602001878460200151610f9891906122ea565b81525060048281548110610faf57610fae61221b565b5b906000526020600020906002020160008201518160000160006101000a81548173ffffffffffffffffffffffffffffffffffffffff021916908373ffffffffffffffffffffffffffffffffffffffff160217905550602082015181600101559050507f7de9fadad35a83dd3338eef5df3012919ba658514c0ee38b60cf1e5512afe9723088886001604051611047949392919061206c565b60405180910390a16001945050505061109f565b7f7de9fadad35a83dd3338eef5df3012919ba658514c0ee38b60cf1e5512afe9723086866000604051611091949392919061206c565b60405180910390a160009250505b5092915050565b6000600354905090565b6000600260009054906101000a900473ffffffffffffffffffffffffffffffffffffffff16905090565b6000600160009054906101000a900473ffffffffffffffffffffffffffffffffffffffff16905090565b600160009054906101000a900473ffffffffffffffffffffffffffffffffffffffff1681565b600080600160009054906101000a900473ffffffffffffffffffffffffffffffffffffffff1673ffffffffffffffffffffffffffffffffffffffff1661116e611944565b73ffffffffffffffffffffffffffffffffffffffff1614611190576000611193565b60015b9050806111d5576040517f08c379a00000000000000000000000000000000000000000000000000000000081526004016111cc90611eb0565b60405180910390fd5b600080600260009054906101000a900473ffffffffffffffffffffffffffffffffffffffff1673ffffffffffffffffffffffffffffffffffffffff1630600354604051602401611226929190611f7e565b6040516020818303038152906040527fe3a4bf29000000000000000000000000000000000000000000000000000000007bffffffffffffffffffffffffffffffffffffffffffffffffffffffff19166020820180517bffffffffffffffffffffffffffffffffffffffffffffffffffffffff83818316178352505050506040516112b0919061235a565b6000604051808303816000865af19150503d80600081146112ed576040519150601f19603f3d011682016040523d82523d6000602084013e6112f2565b606091505b509150915081611337576040517f08c379a000000000000000000000000000000000000000000000000000000000815260040161132e906123e3565b60405180910390fd5b8080602001905181019061134b919061242f565b935050505090565b600260009054906101000a900473ffffffffffffffffffffffffffffffffffffffff1681565b61138161194c565b6000600160009054906101000a900473ffffffffffffffffffffffffffffffffffffffff1673ffffffffffffffffffffffffffffffffffffffff166113c4611944565b73ffffffffffffffffffffffffffffffffffffffff16146113e65760006113e9565b60015b90508061142b576040517f08c379a000000000000000000000000000000000000000000000000000000000815260040161142290611eb0565b60405180910390fd5b600460405180604001604052808673ffffffffffffffffffffffffffffffffffffffff16815260200185815250908060018154018082558091505060019003906000526020600020906002020160009091909190915060008201518160000160006101000a81548173ffffffffffffffffffffffffffffffffffffffff021916908373ffffffffffffffffffffffffffffffffffffffff1602179055506020820151816001015550507f0c8f8aa5ff72e544d1fc13f5df82d1f5a24144dd0128bcb65885473543ab91b03085856040516115079392919061245c565b60405180910390a16004600160048054905061152391906122ea565b815481106115345761153361221b565b5b90600052602060002090600202016040518060400160405290816000820160009054906101000a900473ffffffffffffffffffffffffffffffffffffffff1673ffffffffffffffffffffffffffffffffffffffff1673ffffffffffffffffffffffffffffffffffffffff16815260200160018201548152505091505092915050565b6000600260149054906101000a900460ff16905090565b60606004805480602002602001604051908101604052809291908181526020016000905b8282101561168357838290600052602060002090600202016040518060400160405290816000820160009054906101000a900473ffffffffffffffffffffffffffffffffffffffff1673ffffffffffffffffffffffffffffffffffffffff1673ffffffffffffffffffffffffffffffffffffffff168152602001600182015481525050815260200190600101906115f1565b50505050905090565b600080600160009054906101000a900473ffffffffffffffffffffffffffffffffffffffff1673ffffffffffffffffffffffffffffffffffffffff166116d0611944565b73ffffffffffffffffffffffffffffffffffffffff16146116f25760006116f5565b60015b905080611737576040517f08c379a000000000000000000000000000000000000000000000000000000000815260040161172e90611eb0565b60405180910390fd5b60008061174386610cc8565b91509150600073ffffffffffffffffffffffffffffffffffffffff16826000015173ffffffffffffffffffffffffffffffffffffffff16146117ba576040517f08c379a00000000000000000000000000000000000000000000000000000000081526004016117b190612169565b60405180910390fd5b6000826000015173ffffffffffffffffffffffffffffffffffffffff166108fc879081150290604051600060405180830381858888f19350505050905080156118f75760405180604001604052808873ffffffffffffffffffffffffffffffffffffffff16815260200187856020015161183491906122ea565b8152506004838154811061184b5761184a61221b565b5b906000526020600020906002020160008201518160000160006101000a81548173ffffffffffffffffffffffffffffffffffffffff021916908373ffffffffffffffffffffffffffffffffffffffff160217905550602082015181600101559050507f591d3dbd44a185bd80de25b77d81eb65e3244a7f43e1f469e0bfe68dbe4c31e030888860016040516118e3949392919061206c565b60405180910390a16001945050505061193d565b7f591d3dbd44a185bd80de25b77d81eb65e3244a7f43e1f469e0bfe68dbe4c31e0308888600060405161192d949392919061206c565b60405180910390a1600094505050505b5092915050565b600033905090565b6040518060400160405280600073ffffffffffffffffffffffffffffffffffffffff168152602001600081525090565b600081519050919050565b600082825260208201905092915050565b60005b838110156119b657808201518184015260208101905061199b565b60008484015250505050565b6000601f19601f8301169050919050565b60006119de8261197c565b6119e88185611987565b93506119f8818560208601611998565b611a01816119c2565b840191505092915050565b60006020820190508181036000830152611a2681846119d3565b905092915050565b6000819050919050565b611a4181611a2e565b82525050565b6000602082019050611a5c6000830184611a38565b92915050565b600080fd5b600073ffffffffffffffffffffffffffffffffffffffff82169050919050565b6000611a9282611a67565b9050919050565b611aa281611a87565b8114611aad57600080fd5b50565b600081359050611abf81611a99565b92915050565b611ace81611a2e565b8114611ad957600080fd5b50565b600081359050611aeb81611ac5565b92915050565b600080600060608486031215611b0a57611b09611a62565b5b6000611b1886828701611ab0565b9350506020611b2986828701611ab0565b9250506040611b3a86828701611adc565b9150509250925092565b60008115159050919050565b611b5981611b44565b82525050565b6000602082019050611b746000830184611b50565b92915050565b60008060408385031215611b9157611b90611a62565b5b6000611b9f85828601611ab0565b9250506020611bb085828601611adc565b9150509250929050565b600060208284031215611bd057611bcf611a62565b5b6000611bde84828501611ab0565b91505092915050565b600081519050919050565b600082825260208201905092915050565b6000819050602082019050919050565b611c1c81611a87565b82525050565b611c2b81611a2e565b82525050565b604082016000820151611c476000850182611c13565b506020820151611c5a6020850182611c22565b50505050565b6000611c6c8383611c31565b60408301905092915050565b6000602082019050919050565b6000611c9082611be7565b611c9a8185611bf2565b9350611ca583611c03565b8060005b83811015611cd6578151611cbd8882611c60565b9750611cc883611c78565b925050600181019050611ca9565b5085935050505092915050565b60006020820190508181036000830152611cfd8184611c85565b905092915050565b604082016000820151611d1b6000850182611c13565b506020820151611d2e6020850182611c22565b50505050565b6000606082019050611d496000830185611d05565b611d566040830184611a38565b9392505050565b611d6681611a87565b82525050565b6000602082019050611d816000830184611d5d565b92915050565b6000611d9282611a67565b9050919050565b611da281611d87565b82525050565b6000602082019050611dbd6000830184611d99565b92915050565b6000604082019050611dd86000830184611d05565b92915050565b7f4e487b7100000000000000000000000000000000000000000000000000000000600052602260045260246000fd5b60006002820490506001821680611e2557607f821691505b602082108103611e3857611e37611dde565b5b50919050565b7f44796e616d6963506f6f6c204572726f723a204f6e6c79204f776e657220436160008201527f6e206368616e6765204f776e6572000000000000000000000000000000000000602082015250565b6000611e9a602e83611987565b9150611ea582611e3e565b604082019050919050565b60006020820190508181036000830152611ec981611e8d565b9050919050565b600081519050611edf81611ac5565b92915050565b600060208284031215611efb57611efa611a62565b5b6000611f0984828501611ed0565b91505092915050565b7f4e6f7420656e6f7567682062616c616e63652e00000000000000000000000000600082015250565b6000611f48601383611987565b9150611f5382611f12565b602082019050919050565b60006020820190508181036000830152611f7781611f3b565b9050919050565b6000604082019050611f936000830185611d5d565b611fa06020830184611a38565b9392505050565b611fb081611b44565b8114611fbb57600080fd5b50565b600081519050611fcd81611fa7565b92915050565b600060208284031215611fe957611fe8611a62565b5b6000611ff784828501611fbe565b91505092915050565b7f5472616e73666572206661696c65642e00000000000000000000000000000000600082015250565b6000612036601083611987565b915061204182612000565b602082019050919050565b6000602082019050818103600083015261206581612029565b9050919050565b60006080820190506120816000830187611d5d565b61208e6020830186611d5d565b61209b6040830185611a38565b6120a86060830184611b50565b95945050505050565b600081905092915050565b50565b60006120cc6000836120b1565b91506120d7826120bc565b600082019050919050565b60006120ed826120bf565b9150819050919050565b7f44796e616d6963506f6f6c204572726f723a2055736572204e6f74204578697360008201527f7420696e2074686973204368616c6c656e676500000000000000000000000000602082015250565b6000612153603383611987565b915061215e826120f7565b604082019050919050565b6000602082019050818103600083015261218281612146565b9050919050565b7f44796e616d6963506f6f6c204572726f723a2043616e204e6f742052656d6f7660008201527f6520557365722069662055736572206465706f73697420457869737400000000602082015250565b60006121e5603c83611987565b91506121f082612189565b604082019050919050565b60006020820190508181036000830152612214816121d8565b9050919050565b7f4e487b7100000000000000000000000000000000000000000000000000000000600052603260045260246000fd5b600060408201905061225f6000830185611d5d565b61226c6020830184611d5d565b9392505050565b7f4e487b7100000000000000000000000000000000000000000000000000000000600052601160045260246000fd5b60006122ad82611a2e565b91507fffffffffffffffffffffffffffffffffffffffffffffffffffffffffffffffff82036122df576122de612273565b5b600182019050919050565b60006122f582611a2e565b915061230083611a2e565b925082820390508181111561231857612317612273565b5b92915050565b600081519050919050565b60006123348261231e565b61233e81856120b1565b935061234e818560208601611998565b80840191505092915050565b60006123668284612329565b915081905092915050565b7f44796e616d6963506f6f6c204572726f723a2043616e204e6f7420676574205260008201527f65766572736520506f6f6c204164647265737300000000000000000000000000602082015250565b60006123cd603383611987565b91506123d882612371565b604082019050919050565b600060208201905081810360008301526123fc816123c0565b9050919050565b61240c81611d87565b811461241757600080fd5b50565b60008151905061242981612403565b92915050565b60006020828403121561244557612444611a62565b5b60006124538482850161241a565b91505092915050565b60006060820190506124716000830186611d5d565b61247e6020830185611d5d565b61248b6040830184611a38565b94935050505056fea26469706673582212203d0ce3a6d2e5b49d0da7f79713a1638a417c1b5342888acaf0c926732bf2fbc464736f6c63430008140033a2646970667358221220d59e02f98ba9eddeb66738ad13cf2224ca7f3a390a13da2954fc5dea56821d6b64736f6c63430008140033",
  "linkReferences": {},
  "deployedLinkReferences": {}
}